{
  "contractName": "KYC",
  "abi": [
    {
      "inputs": [
        {
          "internalType": "string",
          "name": "name_",
          "type": "string"
        },
        {
          "internalType": "string",
          "name": "email_",
          "type": "string"
        }
      ],
      "stateMutability": "nonpayable",
      "type": "constructor"
    },
    {
      "anonymous": false,
      "inputs": [
        {
          "indexed": false,
          "internalType": "address",
          "name": "id_",
          "type": "address"
        },
        {
          "indexed": false,
          "internalType": "string",
          "name": "name",
          "type": "string"
        }
      ],
      "name": "BankActivated",
      "type": "event"
    },
    {
      "anonymous": false,
      "inputs": [
        {
          "indexed": false,
          "internalType": "address",
          "name": "id_",
          "type": "address"
        },
        {
          "indexed": false,
          "internalType": "string",
          "name": "name",
          "type": "string"
        },
        {
          "indexed": false,
          "internalType": "string",
          "name": "email",
          "type": "string"
        },
        {
          "indexed": false,
          "internalType": "string",
          "name": "ifscCode",
          "type": "string"
        }
      ],
      "name": "BankAdded",
      "type": "event"
    },
    {
      "anonymous": false,
      "inputs": [
        {
          "indexed": false,
          "internalType": "address",
          "name": "id_",
          "type": "address"
        },
        {
          "indexed": false,
          "internalType": "string",
          "name": "name",
          "type": "string"
        }
      ],
      "name": "BankDeactivated",
      "type": "event"
    },
    {
      "anonymous": false,
      "inputs": [
        {
          "indexed": false,
          "internalType": "address",
          "name": "id_",
          "type": "address"
        },
        {
          "indexed": false,
          "internalType": "string",
          "name": "name",
          "type": "string"
        },
        {
          "indexed": false,
          "internalType": "string",
          "name": "email",
          "type": "string"
        }
      ],
      "name": "BankUpdated",
      "type": "event"
    },
    {
      "anonymous": false,
      "inputs": [
        {
          "indexed": false,
          "internalType": "address",
          "name": "id_",
          "type": "address"
        },
        {
          "indexed": false,
          "internalType": "string",
          "name": "name",
          "type": "string"
        },
        {
          "indexed": false,
          "internalType": "string",
          "name": "email",
          "type": "string"
        }
      ],
      "name": "CustomerAdded",
      "type": "event"
    },
    {
      "anonymous": false,
      "inputs": [
        {
          "indexed": false,
          "internalType": "address",
          "name": "id_",
          "type": "address"
        },
        {
          "indexed": false,
          "internalType": "string",
          "name": "name",
          "type": "string"
        },
        {
          "indexed": false,
          "internalType": "string",
          "name": "email",
          "type": "string"
        }
      ],
      "name": "CustomerDataUpdated",
      "type": "event"
    },
    {
      "anonymous": false,
      "inputs": [
        {
          "indexed": false,
          "internalType": "string",
          "name": "reqId",
          "type": "string"
        },
        {
          "indexed": false,
          "internalType": "address",
          "name": "customerId",
          "type": "address"
        },
        {
          "indexed": false,
          "internalType": "address",
          "name": "bankId",
          "type": "address"
        },
        {
          "indexed": false,
          "internalType": "enum Types.DataHashStatus",
          "name": "status",
          "type": "uint8"
        }
      ],
      "name": "DataHashPermissionChanged",
      "type": "event"
    },
    {
      "anonymous": false,
      "inputs": [
        {
          "indexed": false,
          "internalType": "address",
          "name": "id_",
          "type": "address"
        },
        {
          "indexed": false,
          "internalType": "string",
          "name": "customerName",
          "type": "string"
        },
        {
          "indexed": false,
          "internalType": "string",
          "name": "dataHash",
          "type": "string"
        }
      ],
      "name": "DataHashUpdated",
      "type": "event"
    },
    {
      "anonymous": false,
      "inputs": [
        {
          "indexed": false,
          "internalType": "string",
          "name": "reqId",
          "type": "string"
        },
        {
          "indexed": false,
          "internalType": "string",
          "name": "bankName",
          "type": "string"
        },
        {
          "indexed": false,
          "internalType": "string",
          "name": "customerName",
          "type": "string"
        }
      ],
      "name": "KycReRequested",
      "type": "event"
    },
    {
      "anonymous": false,
      "inputs": [
        {
          "indexed": false,
          "internalType": "string",
          "name": "reqId",
          "type": "string"
        },
        {
          "indexed": false,
          "internalType": "string",
          "name": "bankName",
          "type": "string"
        },
        {
          "indexed": false,
          "internalType": "string",
          "name": "customerName",
          "type": "string"
        }
      ],
      "name": "KycRequestAdded",
      "type": "event"
    },
    {
      "anonymous": false,
      "inputs": [
        {
          "indexed": false,
          "internalType": "string",
          "name": "reqId",
          "type": "string"
        },
        {
          "indexed": false,
          "internalType": "address",
          "name": "customerId",
          "type": "address"
        },
        {
          "indexed": false,
          "internalType": "address",
          "name": "bankId",
          "type": "address"
        },
        {
          "indexed": false,
          "internalType": "enum Types.KycStatus",
          "name": "status",
          "type": "uint8"
        }
      ],
      "name": "KycStatusChanged",
      "type": "event"
    },
    {
      "inputs": [
        {
          "internalType": "uint256",
          "name": "pageNumber",
          "type": "uint256"
        }
      ],
      "name": "getAllBanks",
      "outputs": [
        {
          "internalType": "uint256",
          "name": "totalPages",
          "type": "uint256"
        },
        {
          "components": [
            {
              "internalType": "string",
              "name": "name",
              "type": "string"
            },
            {
              "internalType": "string",
              "name": "email",
              "type": "string"
            },
            {
              "internalType": "address",
              "name": "id_",
              "type": "address"
            },
            {
              "internalType": "string",
              "name": "ifscCode",
              "type": "string"
            },
            {
              "internalType": "uint16",
              "name": "kycCount",
              "type": "uint16"
            },
            {
              "internalType": "enum Types.BankStatus",
              "name": "status",
              "type": "uint8"
            }
          ],
          "internalType": "struct Types.Bank[]",
          "name": "",
          "type": "tuple[]"
        }
      ],
      "stateMutability": "view",
      "type": "function",
      "constant": true
    },
    {
      "inputs": [
        {
          "components": [
            {
              "internalType": "string",
              "name": "name",
              "type": "string"
            },
            {
              "internalType": "string",
              "name": "email",
              "type": "string"
            },
            {
              "internalType": "address",
              "name": "id_",
              "type": "address"
            },
            {
              "internalType": "string",
              "name": "ifscCode",
              "type": "string"
            },
            {
              "internalType": "uint16",
              "name": "kycCount",
              "type": "uint16"
            },
            {
              "internalType": "enum Types.BankStatus",
              "name": "status",
              "type": "uint8"
            }
          ],
          "internalType": "struct Types.Bank",
          "name": "bank_",
          "type": "tuple"
        }
      ],
      "name": "addBank",
      "outputs": [],
      "stateMutability": "nonpayable",
      "type": "function"
    },
    {
      "inputs": [
        {
          "internalType": "address",
          "name": "id_",
          "type": "address"
        },
        {
          "internalType": "string",
          "name": "email_",
          "type": "string"
        },
        {
          "internalType": "string",
          "name": "name_",
          "type": "string"
        }
      ],
      "name": "updateBankDetails",
      "outputs": [],
      "stateMutability": "nonpayable",
      "type": "function"
    },
    {
      "inputs": [
        {
          "internalType": "address",
          "name": "id_",
          "type": "address"
        },
        {
          "internalType": "bool",
          "name": "makeActive_",
          "type": "bool"
        }
      ],
      "name": "activateDeactivateBank",
      "outputs": [],
      "stateMutability": "nonpayable",
      "type": "function"
    },
    {
      "inputs": [
        {
          "internalType": "uint256",
          "name": "pageNumber",
          "type": "uint256"
        }
      ],
      "name": "getCustomersOfBank",
      "outputs": [
        {
          "internalType": "uint256",
          "name": "totalPages",
          "type": "uint256"
        },
        {
          "components": [
            {
              "internalType": "string",
              "name": "id_",
              "type": "string"
            },
            {
              "internalType": "address",
              "name": "userId_",
              "type": "address"
            },
            {
              "internalType": "string",
              "name": "customerName",
              "type": "string"
            },
            {
              "internalType": "address",
              "name": "bankId_",
              "type": "address"
            },
            {
              "internalType": "string",
              "name": "bankName",
              "type": "string"
            },
            {
              "internalType": "string",
              "name": "dataHash",
              "type": "string"
            },
            {
              "internalType": "uint256",
              "name": "updatedOn",
              "type": "uint256"
            },
            {
              "internalType": "enum Types.KycStatus",
              "name": "status",
              "type": "uint8"
            },
            {
              "internalType": "enum Types.DataHashStatus",
              "name": "dataRequest",
              "type": "uint8"
            },
            {
              "internalType": "string",
              "name": "additionalNotes",
              "type": "string"
            }
          ],
          "internalType": "struct Types.KycRequest[]",
          "name": "",
          "type": "tuple[]"
        }
      ],
      "stateMutability": "view",
      "type": "function",
      "constant": true
    },
    {
      "inputs": [
        {
          "components": [
            {
              "internalType": "string",
              "name": "name",
              "type": "string"
            },
            {
              "internalType": "string",
              "name": "email",
              "type": "string"
            },
            {
              "internalType": "uint256",
              "name": "mobileNumber",
              "type": "uint256"
            },
            {
              "internalType": "address",
              "name": "id_",
              "type": "address"
            },
            {
              "internalType": "address",
              "name": "kycVerifiedBy",
              "type": "address"
            },
            {
              "internalType": "string",
              "name": "dataHash",
              "type": "string"
            },
            {
              "internalType": "uint256",
              "name": "dataUpdatedOn",
              "type": "uint256"
            }
          ],
          "internalType": "struct Types.Customer",
          "name": "customer_",
          "type": "tuple"
        },
        {
          "internalType": "uint256",
          "name": "currentTime_",
          "type": "uint256"
        },
        {
          "internalType": "string",
          "name": "notes_",
          "type": "string"
        }
      ],
      "name": "addKycRequest",
      "outputs": [],
      "stateMutability": "nonpayable",
      "type": "function"
    },
    {
      "inputs": [
        {
          "internalType": "address",
          "name": "id_",
          "type": "address"
        },
        {
          "internalType": "string",
          "name": "notes_",
          "type": "string"
        }
      ],
      "name": "reRequestForKycRequest",
      "outputs": [],
      "stateMutability": "nonpayable",
      "type": "function"
    },
    {
      "inputs": [
        {
          "internalType": "address",
          "name": "userId_",
          "type": "address"
        },
        {
          "internalType": "bool",
          "name": "verified_",
          "type": "bool"
        },
        {
          "internalType": "string",
          "name": "note_",
          "type": "string"
        }
      ],
      "name": "updateKycVerification",
      "outputs": [],
      "stateMutability": "nonpayable",
      "type": "function"
    },
    {
      "inputs": [
        {
          "internalType": "address",
          "name": "id_",
          "type": "address"
        }
      ],
      "name": "searchCustomers",
      "outputs": [
        {
          "internalType": "bool",
          "name": "",
          "type": "bool"
        },
        {
          "components": [
            {
              "internalType": "string",
              "name": "name",
              "type": "string"
            },
            {
              "internalType": "string",
              "name": "email",
              "type": "string"
            },
            {
              "internalType": "uint256",
              "name": "mobileNumber",
              "type": "uint256"
            },
            {
              "internalType": "address",
              "name": "id_",
              "type": "address"
            },
            {
              "internalType": "address",
              "name": "kycVerifiedBy",
              "type": "address"
            },
            {
              "internalType": "string",
              "name": "dataHash",
              "type": "string"
            },
            {
              "internalType": "uint256",
              "name": "dataUpdatedOn",
              "type": "uint256"
            }
          ],
          "internalType": "struct Types.Customer",
          "name": "",
          "type": "tuple"
        },
        {
          "components": [
            {
              "internalType": "string",
              "name": "id_",
              "type": "string"
            },
            {
              "internalType": "address",
              "name": "userId_",
              "type": "address"
            },
            {
              "internalType": "string",
              "name": "customerName",
              "type": "string"
            },
            {
              "internalType": "address",
              "name": "bankId_",
              "type": "address"
            },
            {
              "internalType": "string",
              "name": "bankName",
              "type": "string"
            },
            {
              "internalType": "string",
              "name": "dataHash",
              "type": "string"
            },
            {
              "internalType": "uint256",
              "name": "updatedOn",
              "type": "uint256"
            },
            {
              "internalType": "enum Types.KycStatus",
              "name": "status",
              "type": "uint8"
            },
            {
              "internalType": "enum Types.DataHashStatus",
              "name": "dataRequest",
              "type": "uint8"
            },
            {
              "internalType": "string",
              "name": "additionalNotes",
              "type": "string"
            }
          ],
          "internalType": "struct Types.KycRequest",
          "name": "",
          "type": "tuple"
        }
      ],
      "stateMutability": "view",
      "type": "function",
      "constant": true
    },
    {
      "inputs": [
        {
          "internalType": "uint256",
          "name": "pageNumber",
          "type": "uint256"
        }
      ],
      "name": "getBankRequests",
      "outputs": [
        {
          "internalType": "uint256",
          "name": "totalPages",
          "type": "uint256"
        },
        {
          "components": [
            {
              "internalType": "string",
              "name": "id_",
              "type": "string"
            },
            {
              "internalType": "address",
              "name": "userId_",
              "type": "address"
            },
            {
              "internalType": "string",
              "name": "customerName",
              "type": "string"
            },
            {
              "internalType": "address",
              "name": "bankId_",
              "type": "address"
            },
            {
              "internalType": "string",
              "name": "bankName",
              "type": "string"
            },
            {
              "internalType": "string",
              "name": "dataHash",
              "type": "string"
            },
            {
              "internalType": "uint256",
              "name": "updatedOn",
              "type": "uint256"
            },
            {
              "internalType": "enum Types.KycStatus",
              "name": "status",
              "type": "uint8"
            },
            {
              "internalType": "enum Types.DataHashStatus",
              "name": "dataRequest",
              "type": "uint8"
            },
            {
              "internalType": "string",
              "name": "additionalNotes",
              "type": "string"
            }
          ],
          "internalType": "struct Types.KycRequest[]",
          "name": "",
          "type": "tuple[]"
        }
      ],
      "stateMutability": "view",
      "type": "function",
      "constant": true
    },
    {
      "inputs": [
        {
          "internalType": "address",
          "name": "bankId_",
          "type": "address"
        },
        {
          "internalType": "bool",
          "name": "approve_",
          "type": "bool"
        },
        {
          "internalType": "string",
          "name": "note_",
          "type": "string"
        }
      ],
      "name": "actionOnKycRequest",
      "outputs": [],
      "stateMutability": "nonpayable",
      "type": "function"
    },
    {
      "inputs": [
        {
          "internalType": "string",
          "name": "name_",
          "type": "string"
        },
        {
          "internalType": "string",
          "name": "email_",
          "type": "string"
        },
        {
          "internalType": "uint256",
          "name": "mobile_",
          "type": "uint256"
        }
      ],
      "name": "updateProfile",
      "outputs": [],
      "stateMutability": "nonpayable",
      "type": "function"
    },
    {
      "inputs": [
        {
          "internalType": "string",
          "name": "hash_",
          "type": "string"
        },
        {
          "internalType": "uint256",
          "name": "currentTime_",
          "type": "uint256"
        }
      ],
      "name": "updateDatahash",
      "outputs": [],
      "stateMutability": "nonpayable",
      "type": "function"
    },
    {
      "inputs": [
        {
          "internalType": "address",
          "name": "bankId_",
          "type": "address"
        },
        {
          "internalType": "string",
          "name": "notes_",
          "type": "string"
        }
      ],
      "name": "removerDatahashPermission",
      "outputs": [],
      "stateMutability": "nonpayable",
      "type": "function"
    },
    {
      "inputs": [
        {
          "internalType": "address",
          "name": "bankId_",
          "type": "address"
        }
      ],
      "name": "searchBanks",
      "outputs": [
        {
          "internalType": "bool",
          "name": "",
          "type": "bool"
        },
        {
          "components": [
            {
              "internalType": "string",
              "name": "name",
              "type": "string"
            },
            {
              "internalType": "string",
              "name": "email",
              "type": "string"
            },
            {
              "internalType": "address",
              "name": "id_",
              "type": "address"
            },
            {
              "internalType": "string",
              "name": "ifscCode",
              "type": "string"
            },
            {
              "internalType": "uint16",
              "name": "kycCount",
              "type": "uint16"
            },
            {
              "internalType": "enum Types.BankStatus",
              "name": "status",
              "type": "uint8"
            }
          ],
          "internalType": "struct Types.Bank",
          "name": "",
          "type": "tuple"
        },
        {
          "components": [
            {
              "internalType": "string",
              "name": "id_",
              "type": "string"
            },
            {
              "internalType": "address",
              "name": "userId_",
              "type": "address"
            },
            {
              "internalType": "string",
              "name": "customerName",
              "type": "string"
            },
            {
              "internalType": "address",
              "name": "bankId_",
              "type": "address"
            },
            {
              "internalType": "string",
              "name": "bankName",
              "type": "string"
            },
            {
              "internalType": "string",
              "name": "dataHash",
              "type": "string"
            },
            {
              "internalType": "uint256",
              "name": "updatedOn",
              "type": "uint256"
            },
            {
              "internalType": "enum Types.KycStatus",
              "name": "status",
              "type": "uint8"
            },
            {
              "internalType": "enum Types.DataHashStatus",
              "name": "dataRequest",
              "type": "uint8"
            },
            {
              "internalType": "string",
              "name": "additionalNotes",
              "type": "string"
            }
          ],
          "internalType": "struct Types.KycRequest",
          "name": "",
          "type": "tuple"
        }
      ],
      "stateMutability": "view",
      "type": "function",
      "constant": true
    },
    {
      "inputs": [],
      "name": "whoAmI",
      "outputs": [
        {
          "components": [
            {
              "internalType": "string",
              "name": "name",
              "type": "string"
            },
            {
              "internalType": "string",
              "name": "email",
              "type": "string"
            },
            {
              "internalType": "address",
              "name": "id_",
              "type": "address"
            },
            {
              "internalType": "enum Types.Role",
              "name": "role",
              "type": "uint8"
            },
            {
              "internalType": "enum Types.BankStatus",
              "name": "status",
              "type": "uint8"
            }
          ],
          "internalType": "struct Types.User",
          "name": "",
          "type": "tuple"
        }
      ],
      "stateMutability": "view",
      "type": "function",
      "constant": true
    },
    {
      "inputs": [
        {
          "internalType": "address",
          "name": "id_",
          "type": "address"
        }
      ],
      "name": "getCustomerDetails",
      "outputs": [
        {
          "components": [
            {
              "internalType": "string",
              "name": "name",
              "type": "string"
            },
            {
              "internalType": "string",
              "name": "email",
              "type": "string"
            },
            {
              "internalType": "uint256",
              "name": "mobileNumber",
              "type": "uint256"
            },
            {
              "internalType": "address",
              "name": "id_",
              "type": "address"
            },
            {
              "internalType": "address",
              "name": "kycVerifiedBy",
              "type": "address"
            },
            {
              "internalType": "string",
              "name": "dataHash",
              "type": "string"
            },
            {
              "internalType": "uint256",
              "name": "dataUpdatedOn",
              "type": "uint256"
            }
          ],
          "internalType": "struct Types.Customer",
          "name": "",
          "type": "tuple"
        }
      ],
      "stateMutability": "view",
      "type": "function",
      "constant": true
    },
    {
      "inputs": [
        {
          "internalType": "address",
          "name": "id_",
          "type": "address"
        }
      ],
      "name": "getBankDetails",
      "outputs": [
        {
          "components": [
            {
              "internalType": "string",
              "name": "name",
              "type": "string"
            },
            {
              "internalType": "string",
              "name": "email",
              "type": "string"
            },
            {
              "internalType": "address",
              "name": "id_",
              "type": "address"
            },
            {
              "internalType": "string",
              "name": "ifscCode",
              "type": "string"
            },
            {
              "internalType": "uint16",
              "name": "kycCount",
              "type": "uint16"
            },
            {
              "internalType": "enum Types.BankStatus",
              "name": "status",
              "type": "uint8"
            }
          ],
          "internalType": "struct Types.Bank",
          "name": "",
          "type": "tuple"
        }
      ],
      "stateMutability": "view",
      "type": "function",
      "constant": true
    }
  ],
  "bytecode": "0x60806040523480156200001157600080fd5b506040516200584e3803806200584e83398101604081905262000034916200030e565b600480546001600160a01b031916339081179091556040805160a0810182528481526020808201859052818301849052600060608301819052608083018190529384526006815291909220825180518493620000959284929101906200019b565b506020828101518051620000b092600185019201906200019b565b506040820151600280830180546001600160a01b039093166001600160a01b031984168117825560608601519391926001600160a81b03199092161790600160a01b90849081111562000107576200010762000378565b0217905550608082015160028201805460ff60a81b1916600160a81b83600181111562000138576200013862000378565b021790555050600454600580546001810182556000919091527f036b6384b5eca791c62761152d0c79bb0604c104a5fb6f4eb0703f3154bb3db00180546001600160a01b0319166001600160a01b0390921691909117905550620003cb92505050565b828054620001a9906200038e565b90600052602060002090601f016020900481019282620001cd576000855562000218565b82601f10620001e857805160ff191683800117855562000218565b8280016001018555821562000218579182015b8281111562000218578251825591602001919060010190620001fb565b50620002269291506200022a565b5090565b5b808211156200022657600081556001016200022b565b634e487b7160e01b600052604160045260246000fd5b600082601f8301126200026957600080fd5b81516001600160401b038082111562000286576200028662000241565b604051601f8301601f19908116603f01168101908282118183101715620002b157620002b162000241565b81604052838152602092508683858801011115620002ce57600080fd5b600091505b83821015620002f25785820183015181830184015290820190620002d3565b83821115620003045760008385830101525b9695505050505050565b600080604083850312156200032257600080fd5b82516001600160401b03808211156200033a57600080fd5b620003488683870162000257565b935060208501519150808211156200035f57600080fd5b506200036e8582860162000257565b9150509250929050565b634e487b7160e01b600052602160045260246000fd5b600181811c90821680620003a357607f821691505b60208210811415620003c557634e487b7160e01b600052602260045260246000fd5b50919050565b61547380620003db6000396000f3fe608060405234801561001057600080fd5b50600436106101165760003560e01c80635f4d6ddf116100a2578063b374a7dd11610071578063b374a7dd14610263578063baa2b9fd14610276578063da91254c14610297578063dbc671d0146102ac578063dc57d07e146102bf57600080fd5b80635f4d6ddf1461020857806377fa069c1461022a5780637c1d61971461023d5780638915fb0c1461025057600080fd5b80632ce23acb116100e95780632ce23acb1461018c57806334b52411146101ae578063369ba32b146101c15780633f2c0e96146101d45780634d82d8e8146101e757600080fd5b80630c60f83d1461011b57806315101e02146101445780631bdd5a0f146101645780632283db9c14610179575b600080fd5b61012e61012936600461465b565b6102d2565b60405161013b9190614760565b60405180910390f35b61015761015236600461465b565b610432565b60405161013b9190614822565b610177610172366004614924565b610511565b005b610177610187366004614993565b610774565b61019f61019a36600461465b565b6108fc565b60405161013b93929190614b88565b6101776101bc366004614bc5565b610f1f565b6101776101cf366004614c23565b6111c1565b6101776101e2366004614924565b611255565b6101fa6101f5366004614c8d565b611401565b60405161013b929190614ca6565b61021b61021636600461465b565b611443565b60405161013b93929190614d10565b610177610238366004614d2b565b611a1a565b61017761024b366004614e2f565b611f64565b61017761025e366004614e9c565b612057565b610177610271366004614ee1565b6122bf565b610289610284366004614c8d565b612337565b60405161013b929190614f14565b61029f61241b565b60405161013b9190614f70565b6102896102ba366004614c8d565b61265d565b6101776102cd366004614bc5565b61270d565b6102da61446c565b816001600160a01b03811661030a5760405162461bcd60e51b815260040161030190614fe5565b60405180910390fd5b6001600160a01b03818116600090815260016020526040902060030154166103445760405162461bcd60e51b81526004016103019061500a565b6001600160a01b0381166000908152600160208190526040909120018054610403919061037090615031565b80601f016020809104026020016040519081016040528092919081815260200182805461039c90615031565b80156103e95780601f106103be576101008083540402835291602001916103e9565b820191906000526020600020905b8154815290600101906020018083116103cc57829003601f168201915b505050505060405180602001604052806000815250612919565b156104205760405162461bcd60e51b815260040161030190615066565b61042983612973565b91505b50919050565b61043a6144bb565b6001600160a01b038083166000908152600360205260409020600201548391166104765760405162461bcd60e51b815260040161030190615090565b6001600160a01b03808216600081815260036020526040902060020154909116146104b35760405162461bcd60e51b815260040161030190615090565b60006001600160a01b03821660009081526003602052604090206004015462010000900460ff1660018111156104eb576104eb614773565b146105085760405162461bcd60e51b8152600401610301906150b8565b61042983612b92565b336000818152600360205260409020600201546001600160a01b03166105495760405162461bcd60e51b815260040161030190615090565b6001600160a01b03808216600081815260036020526040902060020154909116146105865760405162461bcd60e51b815260040161030190615090565b60006001600160a01b03821660009081526003602052604090206004015462010000900460ff1660018111156105be576105be614773565b146105db5760405162461bcd60e51b8152600401610301906150b8565b60006105e73385612e17565b90506105f281612e55565b6106325760405162461bcd60e51b815260206004820152601160248201527012d650c81c995c481b9bdd08199bdd5b99607a1b6044820152606401610301565b61063b84612f61565b6106785760405162461bcd60e51b815260206004820152600e60248201526d155cd95c881b9bdd08199bdd5b9960921b6044820152606401610301565b600060078260405161068a91906150e4565b908152604051908190036020019020600701805461ff0019166101008360028111156106b8576106b8614773565b0217905550826007826040516106ce91906150e4565b908152602001604051809103902060080190805190602001906106f29291906144ed565b507f524a348eaa0159a5bd9d05667fe8d01e3fef50369ae5f27c2ade107c84bfeaf78160078360405161072591906150e4565b908152602001604051809103902060040160078460405161074691906150e4565b9081526020016040518091039020600201604051610766939291906151a0565b60405180910390a150505050565b6004546001600160a01b0316331461079e5760405162461bcd60e51b8152600401610301906151d9565b6107a78161300a565b6040805160a081018252825181526020808401518183015283830180516001600160a01b03908116848601526001606085015260006080850181905291511681526006825292909220815180519293919261080592849201906144ed565b50602082810151805161081e92600185019201906144ed565b506040820151600280830180546001600160a01b039093166001600160a01b031984168117825560608601519391926001600160a81b03199092161790600160a01b90849081111561087257610872614773565b0217905550608082015160028201805460ff60a81b1916600160a81b8360018111156108a0576108a0614773565b0217905550505060400151600580546001810182556000919091527f036b6384b5eca791c62761152d0c79bb0604c104a5fb6f4eb0703f3154bb3db00180546001600160a01b0319166001600160a01b03909216919091179055565b60006109066144bb565b61090e614571565b338061092c5760405162461bcd60e51b815260040161030190614fe5565b6001600160a01b03818116600090815260016020526040902060030154166109665760405162461bcd60e51b81526004016103019061500a565b6001600160a01b0381166000908152600160208190526040909120018054610992919061037090615031565b156109af5760405162461bcd60e51b815260040161030190615066565b6001600160a01b038086166000908152600360205260409020600201548691166109eb5760405162461bcd60e51b815260040161030190615090565b6001600160a01b0380821660008181526003602052604090206002015490911614610a285760405162461bcd60e51b815260040161030190615090565b60006001600160a01b03821660009081526003602052604090206004015462010000900460ff166001811115610a6057610a60614773565b14610a7d5760405162461bcd60e51b8152600401610301906150b8565b6000610a876144bb565b610a8f614571565b33600090815260096020908152604080832080548251818502810185019093528083529192909190830182828015610af057602002820191906000526020600020905b81546001600160a01b03168152600190910190602001808311610ad2575b5050505050905060005b8151811015610f0f578a6001600160a01b0316828281518110610b1f57610b1f615208565b60200260200101516001600160a01b03161415610efd5760019450610b438b612b92565b93506007610b518c33612e17565b604051610b5e91906150e4565b908152602001604051809103902060405180610140016040529081600082018054610b8890615031565b80601f0160208091040260200160405190810160405280929190818152602001828054610bb490615031565b8015610c015780601f10610bd657610100808354040283529160200191610c01565b820191906000526020600020905b815481529060010190602001808311610be457829003601f168201915b505050918352505060018201546001600160a01b03166020820152600282018054604090920191610c3190615031565b80601f0160208091040260200160405190810160405280929190818152602001828054610c5d90615031565b8015610caa5780601f10610c7f57610100808354040283529160200191610caa565b820191906000526020600020905b815481529060010190602001808311610c8d57829003601f168201915b505050918352505060038201546001600160a01b03166020820152600482018054604090920191610cda90615031565b80601f0160208091040260200160405190810160405280929190818152602001828054610d0690615031565b8015610d535780601f10610d2857610100808354040283529160200191610d53565b820191906000526020600020905b815481529060010190602001808311610d3657829003601f168201915b50505050508152602001600582018054610d6c90615031565b80601f0160208091040260200160405190810160405280929190818152602001828054610d9890615031565b8015610de55780601f10610dba57610100808354040283529160200191610de5565b820191906000526020600020905b815481529060010190602001808311610dc857829003601f168201915b505050918352505060068201546020820152600782015460409091019060ff166002811115610e1657610e16614773565b6002811115610e2757610e27614773565b81526020016007820160019054906101000a900460ff166002811115610e4f57610e4f614773565b6002811115610e6057610e60614773565b8152602001600882018054610e7490615031565b80601f0160208091040260200160405190810160405280929190818152602001828054610ea090615031565b8015610eed5780601f10610ec257610100808354040283529160200191610eed565b820191906000526020600020905b815481529060010190602001808311610ed057829003601f168201915b5050505050815250509250610f0f565b80610f0781615234565b915050610afa565b5092999198509650945050505050565b3380610f3d5760405162461bcd60e51b815260040161030190614fe5565b6001600160a01b0381811660009081526001602052604090206003015416610f775760405162461bcd60e51b81526004016103019061500a565b6001600160a01b0381166000908152600160208190526040909120018054610fa3919061037090615031565b15610fc05760405162461bcd60e51b815260040161030190615066565b6001600160a01b03808516600090815260036020526040902060020154859116610ffc5760405162461bcd60e51b815260040161030190615090565b6001600160a01b03808216600081815260036020526040902060020154909116146110395760405162461bcd60e51b815260040161030190615090565b60006001600160a01b03821660009081526003602052604090206004015462010000900460ff16600181111561107157611071614773565b1461108e5760405162461bcd60e51b8152600401610301906150b8565b600061109a8633612e17565b90506110a581612e55565b6110ed5760405162461bcd60e51b81526020600482015260196024820152785573657220646f65736e27742068617665204b59432072657160381b6044820152606401610301565b600085156110fd57506001611101565b5060025b8060078360405161111291906150e4565b908152604051908190036020019020600701805461ff00191661010083600281111561114057611140614773565b02179055508460078360405161115691906150e4565b9081526020016040518091039020600801908051906020019061117a9291906144ed565b507f9a3f3f9de5ac964f84f08c6124f7b844ffd73de3fd4b472eb59f6b68e5729a81823389846040516111b0949392919061524f565b60405180910390a150505050505050565b6004546001600160a01b031633146111eb5760405162461bcd60e51b8152600401610301906151d9565b6111f68383836131da565b6001600160a01b0383166000908152600660209081526040909120825161121f928401906144ed565b506001600160a01b0383166000908152600660209081526040909120835161124f926001909201918501906144ed565b50505050565b33806112735760405162461bcd60e51b815260040161030190614fe5565b6001600160a01b03818116600090815260016020526040902060030154166112ad5760405162461bcd60e51b81526004016103019061500a565b6001600160a01b03811660009081526001602081905260409091200180546112d9919061037090615031565b156112f65760405162461bcd60e51b815260040161030190615066565b60006113028433612e17565b905061130d81612e55565b6113505760405162461bcd60e51b815260206004820152601460248201527314195c9b5a5cdcda5bdb881b9bdd08199bdd5b9960621b6044820152606401610301565b600260078260405161136291906150e4565b908152604051908190036020019020600701805461ff00191661010083600281111561139057611390614773565b0217905550826007826040516113a691906150e4565b908152602001604051809103902060080190805190602001906113ca9291906144ed565b507f9a3f3f9de5ac964f84f08c6124f7b844ffd73de3fd4b472eb59f6b68e5729a818133866002604051610766949392919061524f565b6004546000906060906001600160a01b031633146114315760405162461bcd60e51b8152600401610301906151d9565b61143a836132ae565b91509150915091565b600061144d61446c565b611455614571565b836001600160a01b03811661147c5760405162461bcd60e51b815260040161030190614fe5565b6001600160a01b03818116600090815260016020526040902060030154166114b65760405162461bcd60e51b81526004016103019061500a565b6001600160a01b03811660009081526001602081905260409091200180546114e2919061037090615031565b156114ff5760405162461bcd60e51b815260040161030190615066565b336000818152600360205260409020600201546001600160a01b03166115375760405162461bcd60e51b815260040161030190615090565b6001600160a01b03808216600081815260036020526040902060020154909116146115745760405162461bcd60e51b815260040161030190615090565b60006001600160a01b03821660009081526003602052604090206004015462010000900460ff1660018111156115ac576115ac614773565b146115c95760405162461bcd60e51b8152600401610301906150b8565b60006115d361446c565b6115db614571565b33600090815260086020908152604091829020805483518184028101840190945280845261164c938d939092919083018282801561164257602002820191906000526020600020905b81546001600160a01b03168152600190910190602001808311611624575b505050505061365d565b90935091508215611a0b576007611663338b612e17565b60405161167091906150e4565b90815260200160405180910390206040518061014001604052908160008201805461169a90615031565b80601f01602080910402602001604051908101604052809291908181526020018280546116c690615031565b80156117135780601f106116e857610100808354040283529160200191611713565b820191906000526020600020905b8154815290600101906020018083116116f657829003601f168201915b505050918352505060018201546001600160a01b0316602082015260028201805460409092019161174390615031565b80601f016020809104026020016040519081016040528092919081815260200182805461176f90615031565b80156117bc5780601f10611791576101008083540402835291602001916117bc565b820191906000526020600020905b81548152906001019060200180831161179f57829003601f168201915b505050918352505060038201546001600160a01b031660208201526004820180546040909201916117ec90615031565b80601f016020809104026020016040519081016040528092919081815260200182805461181890615031565b80156118655780601f1061183a57610100808354040283529160200191611865565b820191906000526020600020905b81548152906001019060200180831161184857829003601f168201915b5050505050815260200160058201805461187e90615031565b80601f01602080910402602001604051908101604052809291908181526020018280546118aa90615031565b80156118f75780601f106118cc576101008083540402835291602001916118f7565b820191906000526020600020905b8154815290600101906020018083116118da57829003601f168201915b505050918352505060068201546020820152600782015460409091019060ff16600281111561192857611928614773565b600281111561193957611939614773565b81526020016007820160019054906101000a900460ff16600281111561196157611961614773565b600281111561197257611972614773565b815260200160088201805461198690615031565b80601f01602080910402602001604051908101604052809291908181526020018280546119b290615031565b80156119ff5780601f106119d4576101008083540402835291602001916119ff565b820191906000526020600020905b8154815290600101906020018083116119e257829003601f168201915b50505050508152505090505b91989097509095509350505050565b336000818152600360205260409020600201546001600160a01b0316611a525760405162461bcd60e51b815260040161030190615090565b6001600160a01b0380821660008181526003602052604090206002015490911614611a8f5760405162461bcd60e51b815260040161030190615090565b60006001600160a01b03821660009081526003602052604090206004015462010000900460ff166001811115611ac757611ac7614773565b14611ae45760405162461bcd60e51b8152600401610301906150b8565b6000611af4338660600151612e17565b9050611aff81612e55565b15611b405760405162461bcd60e51b81526020600482015260116024820152702ab9b2b9103430b21035bcb1903932b89760791b6044820152606401610301565b60405180610140016040528082815260200186606001516001600160a01b0316815260200186600001518152602001336001600160a01b03168152602001611b8733612b92565b51815260a0870151602082015260408101869052606001600081526020016000815260200184815250600782604051611bc091906150e4565b90815260200160405180910390206000820151816000019080519060200190611bea9291906144ed565b506020828101516001830180546001600160a01b0319166001600160a01b0390921691909117905560408301518051611c2992600285019201906144ed565b5060608201516003820180546001600160a01b0319166001600160a01b0390921691909117905560808201518051611c6b9160048401916020909101906144ed565b5060a08201518051611c879160058401916020909101906144ed565b5060c0820151600682015560e082015160078201805460ff19166001836002811115611cb557611cb5614773565b0217905550610100828101516007830180549192909161ff00191690836002811115611ce357611ce3614773565b02179055506101208201518051611d049160088401916020909101906144ed565b505033600081815260086020908152604080832060608b0180518254600181810185559387528587200180546001600160a01b039283166001600160a01b031991821617909155915116855260098452828520805492830181558552929093209092018054909116909217909155517f1c9ca7942139211bfb75ec030ee95c38e96f4eb7d755b28d3eede55f8d5eb86d91508290600790611da69083906150e4565b9081526040519081900360200181208851611dc79392600490920191615293565b60405180910390a1611ddc8560600151612f61565b611f5d57611de9856138f7565b6040518060a00160405280866000015181526020018660200151815260200186606001516001600160a01b03168152602001600280811115611e2d57611e2d614773565b81526000602091820181905260608801516001600160a01b031681526006825260409020825180519192611e66928492909101906144ed565b506020828101518051611e7f92600185019201906144ed565b506040820151600280830180546001600160a01b039093166001600160a01b031984168117825560608601519391926001600160a81b03199092161790600160a01b908490811115611ed357611ed3614773565b0217905550608082015160028201805460ff60a81b1916600160a81b836001811115611f0157611f01614773565b021790555050506060850151600580546001810182556000919091527f036b6384b5eca791c62761152d0c79bb0604c104a5fb6f4eb0703f3154bb3db00180546001600160a01b0319166001600160a01b039092169190911790555b5050505050565b3380611f825760405162461bcd60e51b815260040161030190614fe5565b6001600160a01b0381811660009081526001602052604090206003015416611fbc5760405162461bcd60e51b81526004016103019061500a565b6001600160a01b0381166000908152600160208190526040909120018054611fe8919061037090615031565b156120055760405162461bcd60e51b815260040161030190615066565b612010848484613a3d565b3360009081526006602090815260409091208551612030928701906144ed565b503360009081526006602090815260409091208451611f5d926001909201918601906144ed565b33806120755760405162461bcd60e51b815260040161030190614fe5565b6001600160a01b03818116600090815260016020526040902060030154166120af5760405162461bcd60e51b81526004016103019061500a565b6001600160a01b03811660009081526001602081905260409091200180546120db919061037090615031565b156120f85760405162461bcd60e51b815260040161030190615066565b6121028383613acc565b3360009081526009602090815260408083208054825181850281018501909352808352919290919083018282801561216357602002820191906000526020600020905b81546001600160a01b03168152600190910190602001808311612145575b5050505050905060005b8151811015611f5d57600061219b83838151811061218d5761218d615208565b602002602001015133612e17565b90506121a681612e55565b156122ac57856007826040516121bc91906150e4565b908152602001604051809103902060050190805190602001906121e09291906144ed565b50846007826040516121f291906150e4565b908152602001604051809103902060060181905550600060078260405161221991906150e4565b908152604051908190036020019020600701805460ff1916600183600281111561224557612245614773565b0217905550604051806040016040528060138152602001725570646174656420616c6c206d7920646f637360681b81525060078260405161228691906150e4565b908152602001604051809103902060080190805190602001906122aa9291906144ed565b505b50806122b781615234565b91505061216d565b6004546001600160a01b031633146122e95760405162461bcd60e51b8152600401610301906151d9565b6122f38282613b48565b6001600160a01b0383166000908152600660205260409020600201805460ff60a81b1916600160a81b83600181111561232e5761232e614773565b02179055505050565b3360008181526003602052604081206002015490916060916001600160a01b03166123745760405162461bcd60e51b815260040161030190615090565b6001600160a01b03808216600081815260036020526040902060020154909116146123b15760405162461bcd60e51b815260040161030190615090565b60006001600160a01b03821660009081526003602052604090206004015462010000900460ff1660018111156123e9576123e9614773565b146124065760405162461bcd60e51b8152600401610301906150b8565b612411846001613d13565b9250925050915091565b6124236145e7565b336124625760405162461bcd60e51b815260206004820152600f60248201526e53656e64657220496420456d70747960881b6044820152606401610301565b336000908152600660205260409020600201546001600160a01b031661249a5760405162461bcd60e51b81526004016103019061500a565b3360009081526006602052604090819020815160a081019092528054829082906124c390615031565b80601f01602080910402602001604051908101604052809291908181526020018280546124ef90615031565b801561253c5780601f106125115761010080835404028352916020019161253c565b820191906000526020600020905b81548152906001019060200180831161251f57829003601f168201915b5050505050815260200160018201805461255590615031565b80601f016020809104026020016040519081016040528092919081815260200182805461258190615031565b80156125ce5780601f106125a3576101008083540402835291602001916125ce565b820191906000526020600020905b8154815290600101906020018083116125b157829003601f168201915b50505091835250506002828101546001600160a01b0381166020840152604090920191600160a01b900460ff169081111561260b5761260b614773565b600281111561261c5761261c614773565b81526020016002820160159054906101000a900460ff16600181111561264457612644614773565b600181111561265557612655614773565b905250919050565b60006060338061267f5760405162461bcd60e51b815260040161030190614fe5565b6001600160a01b03818116600090815260016020526040902060030154166126b95760405162461bcd60e51b81526004016103019061500a565b6001600160a01b03811660009081526001602081905260409091200180546126e5919061037090615031565b156127025760405162461bcd60e51b815260040161030190615066565b612411846000613d13565b336000818152600360205260409020600201546001600160a01b03166127455760405162461bcd60e51b815260040161030190615090565b6001600160a01b03808216600081815260036020526040902060020154909116146127825760405162461bcd60e51b815260040161030190615090565b60006001600160a01b03821660009081526003602052604090206004015462010000900460ff1660018111156127ba576127ba614773565b146127d75760405162461bcd60e51b8152600401610301906150b8565b60006127e33386612e17565b90506127ee81612e55565b6128365760405162461bcd60e51b81526020600482015260196024820152785573657220646f65736e27742068617665204b59432072657160381b6044820152606401610301565b600084156128585750600161284a336142e7565b61285386614356565b61285c565b5060025b8060078360405161286d91906150e4565b908152604051908190036020019020600701805460ff1916600183600281111561289957612899614773565b0217905550836007836040516128af91906150e4565b908152602001604051809103902060080190805190602001906128d39291906144ed565b507f900b83a690e29ff7d6e76e350983afea30403d6c47fe8ce52045fb20074c79a082873384604051612909949392919061524f565b60405180910390a1505050505050565b60008160405160200161292c91906150e4565b604051602081830303815290604052805190602001208360405160200161295391906150e4565b604051602081830303815290604052805190602001201490505b92915050565b61297b61446c565b6001600160a01b03821660009081526001602052604090819020815160e081019092528054829082906129ad90615031565b80601f01602080910402602001604051908101604052809291908181526020018280546129d990615031565b8015612a265780601f106129fb57610100808354040283529160200191612a26565b820191906000526020600020905b815481529060010190602001808311612a0957829003601f168201915b50505050508152602001600182018054612a3f90615031565b80601f0160208091040260200160405190810160405280929190818152602001828054612a6b90615031565b8015612ab85780601f10612a8d57610100808354040283529160200191612ab8565b820191906000526020600020905b815481529060010190602001808311612a9b57829003601f168201915b50505091835250506002820154602082015260038201546001600160a01b0390811660408301526004830154166060820152600582018054608090920191612aff90615031565b80601f0160208091040260200160405190810160405280929190818152602001828054612b2b90615031565b8015612b785780601f10612b4d57610100808354040283529160200191612b78565b820191906000526020600020905b815481529060010190602001808311612b5b57829003601f168201915b505050505081526020016006820154815250509050919050565b612b9a6144bb565b6001600160a01b038216612be05760405162461bcd60e51b815260206004820152600d60248201526c42616e6b20496420456d70747960981b6044820152606401610301565b6001600160a01b03821660009081526003602052604090819020815160c08101909252805482908290612c1290615031565b80601f0160208091040260200160405190810160405280929190818152602001828054612c3e90615031565b8015612c8b5780601f10612c6057610100808354040283529160200191612c8b565b820191906000526020600020905b815481529060010190602001808311612c6e57829003601f168201915b50505050508152602001600182018054612ca490615031565b80601f0160208091040260200160405190810160405280929190818152602001828054612cd090615031565b8015612d1d5780601f10612cf257610100808354040283529160200191612d1d565b820191906000526020600020905b815481529060010190602001808311612d0057829003601f168201915b505050918352505060028201546001600160a01b03166020820152600382018054604090920191612d4d90615031565b80601f0160208091040260200160405190810160405280929190818152602001828054612d7990615031565b8015612dc65780601f10612d9b57610100808354040283529160200191612dc6565b820191906000526020600020905b815481529060010190602001808311612da957829003601f168201915b5050509183525050600482015461ffff8116602083015260409091019062010000900460ff166001811115612dfd57612dfd614773565b6001811115612e0e57612e0e614773565b90525092915050565b604080516bffffffffffffffffffffffff19606094851b811660208301529290931b9091166034830152805160288184030181526048909201905290565b6000612e708260405180602001604052806000815250612919565b15612eb05760405162461bcd60e51b815260206004820152601060248201526f5265717565737420496420656d70747960801b6044820152606401610301565b61296d600783604051612ec391906150e4565b9081526040519081900360200190208054612edd90615031565b80601f0160208091040260200160405190810160405280929190818152602001828054612f0990615031565b8015612f565780601f10612f2b57610100808354040283529160200191612f56565b820191906000526020600020905b815481529060010190602001808311612f3957829003601f168201915b505050505083612919565b60006001600160a01b038216612fa75760405162461bcd60e51b815260206004820152600b60248201526a496420697320656d70747960a81b6044820152606401610301565b6001600160a01b038281166000908152600160205260409020600301541615801590612ffc57506001600160a01b0382166000908152600160208190526040909120018054612ffa919061037090615031565b155b15613005575060015b919050565b6040808201516001600160a01b0390811660009081526003602052919091206002015416156130695760405162461bcd60e51b815260206004820152600b60248201526a42616e6b2065786973747360a81b6044820152606401610301565b6040808201516001600160a01b031660009081526003602090815291902082518051849361309b9284929101906144ed565b5060208281015180516130b492600185019201906144ed565b5060408201516002820180546001600160a01b0319166001600160a01b03909216919091179055606082015180516130f69160038401916020909101906144ed565b50608082015160048201805461ffff90921661ffff1983168117825560a08501519262ffffff1916176201000083600181111561313557613135614773565b0217905550505060408181018051600280546001810182556000919091527f405787fa12a823e0f2b7631cc41b3ba8828b3321ca811111fa75cd3aa3bb5ace0180546001600160a01b0319166001600160a01b039092169190911790555182516020840151606085015193517f17ee33cc6a54067d735ee1c9200fc0dc8354b1d7deae9908692bcd90723044b1946131cf949392916152cc565b60405180910390a150565b6001600160a01b03838116600090815260036020526040902060020154166132145760405162461bcd60e51b815260040161030190615090565b6001600160a01b0383166000908152600360209081526040909120825161323d928401906144ed565b506001600160a01b0383166000908152600360209081526040909120835161326d926001909201918501906144ed565b507fc0e694475d9755514453a459373ded91f1517029faca54000da1c3007ec2c4f98382846040516132a193929190615321565b60405180910390a1505050565b60006060600083116132f55760405162461bcd60e51b815260206004820152601060248201526f0504e2073686f756c64206265203e20360841b6044820152606401610301565b60008060008061335f87600280548060200260200160405190810160405280929190818152602001828054801561335557602002820191906000526020600020905b81546001600160a01b03168152600190910190602001808311613337575b50505050506143cc565b935093509350935060008367ffffffffffffffff81111561338257613382614835565b6040519080825280602002602001820160405280156133bb57816020015b6133a86144bb565b8152602001906001900390816133a05790505b509050825b8281101561364e5760036000600283815481106133df576133df615208565b60009182526020808320909101546001600160a01b031683528201929092526040908101909120815160c0810190925280548290829061341e90615031565b80601f016020809104026020016040519081016040528092919081815260200182805461344a90615031565b80156134975780601f1061346c57610100808354040283529160200191613497565b820191906000526020600020905b81548152906001019060200180831161347a57829003601f168201915b505050505081526020016001820180546134b090615031565b80601f01602080910402602001604051908101604052809291908181526020018280546134dc90615031565b80156135295780601f106134fe57610100808354040283529160200191613529565b820191906000526020600020905b81548152906001019060200180831161350c57829003601f168201915b505050918352505060028201546001600160a01b0316602082015260038201805460409092019161355990615031565b80601f016020809104026020016040519081016040528092919081815260200182805461358590615031565b80156135d25780601f106135a7576101008083540402835291602001916135d2565b820191906000526020600020905b8154815290600101906020018083116135b557829003601f168201915b5050509183525050600482015461ffff8116602083015260409091019062010000900460ff16600181111561360957613609614773565b600181111561361a5761361a614773565b8152505082828151811061363057613630615208565b6020026020010181905250808061364690615234565b9150506133c0565b50939793965092945050505050565b600061366761446c565b600061367161446c565b60005b85518110156138eb57866001600160a01b031686828151811061369957613699615208565b60200260200101516001600160a01b031614156138d9576001925060016000886001600160a01b03166001600160a01b031681526020019081526020016000206040518060e00160405290816000820180546136f490615031565b80601f016020809104026020016040519081016040528092919081815260200182805461372090615031565b801561376d5780601f106137425761010080835404028352916020019161376d565b820191906000526020600020905b81548152906001019060200180831161375057829003601f168201915b5050505050815260200160018201805461378690615031565b80601f01602080910402602001604051908101604052809291908181526020018280546137b290615031565b80156137ff5780601f106137d4576101008083540402835291602001916137ff565b820191906000526020600020905b8154815290600101906020018083116137e257829003601f168201915b50505091835250506002820154602082015260038201546001600160a01b039081166040830152600483015416606082015260058201805460809092019161384690615031565b80601f016020809104026020016040519081016040528092919081815260200182805461387290615031565b80156138bf5780601f10613894576101008083540402835291602001916138bf565b820191906000526020600020905b8154815290600101906020018083116138a257829003601f168201915b5050505050815260200160068201548152505091506138eb565b806138e381615234565b915050613674565b50909590945092505050565b60608101516001600160a01b0316600090815260016020908152604090912082518051849361392a9284929101906144ed565b50602082810151805161394392600185019201906144ed565b506040820151600282015560608201516003820180546001600160a01b039283166001600160a01b031991821617909155608084015160048401805491909316911617905560a082015180516139a39160058401916020909101906144ed565b5060c09190910151600690910155606081018051600080546001810182559080527f290decd9548b62a8d60345a988386fc84ba6bc95484008f6362f93160ef3e5630180546001600160a01b0319166001600160a01b0390921691909117905551815160208301516040517f77eacb4962819f791ebd2750d7be9519622ddcf4c37fe09c6fd33ace5ce32ccb936131cf9390929091615321565b3360009081526001602090815260409091208451613a5d928601906144ed565b503360009081526001602081815260409092208451613a84939190920191908501906144ed565b503360008181526001602052604090819020600201839055517fcfc84fa73e8500b1f994b7616fda16714aa77352defd398c17f8dda41cc92195916132a19186908690615321565b3360009081526001602090815260409091208351613af2926005909201918501906144ed565b5033600081815260016020526040908190206006810184905590517f844d9124dad5a413c4b99664397291f93f1e89513cd8c3a68674c050283c556192613b3c9290918690615357565b60405180910390a15050565b6001600160a01b03828116600090815260036020526040812060020154909116613b845760405162461bcd60e51b815260040161030190615090565b818015613bc6575060016001600160a01b03841660009081526003602052604090206004015462010000900460ff166001811115613bc457613bc4614773565b145b15613c33576001600160a01b0383166000908152600360205260409081902060048101805462ff00001916905590517fbbb85d77e85c02977b28ba58175443b7d9c020551c53482ea6df5fe2e1cb884391613c239186919061537b565b60405180910390a150600061296d565b81158015613c76575060006001600160a01b03841660009081526003602052604090206004015462010000900460ff166001811115613c7457613c74614773565b145b15613ce8576001600160a01b0383166000908152600360205260409081902060048101805462ff000019166201000017905590517fe2914c072e85a93716aea3154e8dc2a6d4f9a823930697852b892fe10bd598f891613cd89186919061537b565b60405180910390a150600161296d565b506001600160a01b03821660009081526003602052604090206004015462010000900460ff1661296d565b6000606060008411613d5d5760405162461bcd60e51b8152602060048201526013602482015272504e2073686f756c64206265203e207a65726f60681b6044820152606401610301565b600080600080613dec8888613d8057336000908152600960205260409020613d90565b3360009081526008602052604090205b805480602002602001604051908101604052809291908181526020018280548015613355576020028201919060005260206000209081546001600160a01b031681526001909101906020018083116133375750505050506143cc565b935093509350935060008367ffffffffffffffff811115613e0f57613e0f614835565b604051908082528060200260200182016040528015613e4857816020015b613e35614571565b815260200190600190039081613e2d5790505b509050825b828110156142d75788613ebd573360009081526009602052604090208054600791613e9d9184908110613e8257613e82615208565b6000918252602090912001546001600160a01b031633612e17565b604051613eaa91906150e4565b9081526020016040518091039020613f1d565b3360008181526008602052604090208054600792613f0192909185908110613ee757613ee7615208565b6000918252602090912001546001600160a01b0316612e17565b604051613f0e91906150e4565b90815260200160405180910390205b60405180610140016040529081600082018054613f3990615031565b80601f0160208091040260200160405190810160405280929190818152602001828054613f6590615031565b8015613fb25780601f10613f8757610100808354040283529160200191613fb2565b820191906000526020600020905b815481529060010190602001808311613f9557829003601f168201915b505050918352505060018201546001600160a01b03166020820152600282018054604090920191613fe290615031565b80601f016020809104026020016040519081016040528092919081815260200182805461400e90615031565b801561405b5780601f106140305761010080835404028352916020019161405b565b820191906000526020600020905b81548152906001019060200180831161403e57829003601f168201915b505050918352505060038201546001600160a01b0316602082015260048201805460409092019161408b90615031565b80601f01602080910402602001604051908101604052809291908181526020018280546140b790615031565b80156141045780601f106140d957610100808354040283529160200191614104565b820191906000526020600020905b8154815290600101906020018083116140e757829003601f168201915b5050505050815260200160058201805461411d90615031565b80601f016020809104026020016040519081016040528092919081815260200182805461414990615031565b80156141965780601f1061416b57610100808354040283529160200191614196565b820191906000526020600020905b81548152906001019060200180831161417957829003601f168201915b505050918352505060068201546020820152600782015460409091019060ff1660028111156141c7576141c7614773565b60028111156141d8576141d8614773565b81526020016007820160019054906101000a900460ff16600281111561420057614200614773565b600281111561421157614211614773565b815260200160088201805461422590615031565b80601f016020809104026020016040519081016040528092919081815260200182805461425190615031565b801561429e5780601f106142735761010080835404028352916020019161429e565b820191906000526020600020905b81548152906001019060200180831161428157829003601f168201915b5050505050815250508282815181106142b9576142b9615208565b602002602001018190525080806142cf90615234565b915050613e4d565b5093989397509295505050505050565b6001600160a01b03811661430d5760405162461bcd60e51b815260040161030190615090565b6001600160a01b0381166000908152600360205260408120600401805461ffff1691614338836153a7565b91906101000a81548161ffff021916908361ffff1602179055505050565b6001600160a01b0381166143a05760405162461bcd60e51b8152602060048201526011602482015270437573746f6d657220496420456d70747960781b6044820152606401610301565b6001600160a01b0316600090815260016020526040902060040180546001600160a01b03191633179055565b6000806000806000601986516143e291906153df565b9050601986516143f291906153f3565b94508015614408578461440481615234565b9550505b60199350614417600188615407565b61442290601961541e565b925061442f87601961541e565b915084871115614446576000935060009150614462565b84871480156144555750600081115b1561446257809350855191505b5092959194509250565b6040518060e0016040528060608152602001606081526020016000815260200160006001600160a01b0316815260200160006001600160a01b0316815260200160608152602001600081525090565b6040805160c081018252606080825260208201819052600092820183905280820152608081018290529060a082015290565b8280546144f990615031565b90600052602060002090601f01602090048101928261451b5760008555614561565b82601f1061453457805160ff1916838001178555614561565b82800160010185558215614561579182015b82811115614561578251825591602001919060010190614546565b5061456d92915061462f565b5090565b6040518061014001604052806060815260200160006001600160a01b031681526020016060815260200160006001600160a01b03168152602001606081526020016060815260200160008152602001600060028111156145d3576145d3614773565b815260200160008152602001606081525090565b6040518060a00160405280606081526020016060815260200160006001600160a01b031681526020016000600281111561462357614623614773565b81526020016000905290565b5b8082111561456d5760008155600101614630565b80356001600160a01b038116811461300557600080fd5b60006020828403121561466d57600080fd5b61467682614644565b9392505050565b60005b83811015614698578181015183820152602001614680565b8381111561124f5750506000910152565b600081518084526146c181602086016020860161467d565b601f01601f19169290920160200192915050565b6000815160e084526146ea60e08501826146a9565b90506020830151848203602086015261470382826146a9565b91505060408301516040850152606083015160018060a01b038082166060870152806080860151166080870152505060a083015184820360a086015261474982826146a9565b91505060c083015160c08501528091505092915050565b60208152600061467660208301846146d5565b634e487b7160e01b600052602160045260246000fd5b6002811061479957614799614773565b9052565b6000815160c084526147b260c08501826146a9565b9050602083015184820360208601526147cb82826146a9565b91505060018060a01b036040840151166040850152606083015184820360608601526147f782826146a9565b91505061ffff608084015116608085015260a083015161481a60a0860182614789565b509392505050565b602081526000614676602083018461479d565b634e487b7160e01b600052604160045260246000fd5b60405160c0810167ffffffffffffffff8111828210171561486e5761486e614835565b60405290565b60405160e0810167ffffffffffffffff8111828210171561486e5761486e614835565b600082601f8301126148a857600080fd5b813567ffffffffffffffff808211156148c3576148c3614835565b604051601f8301601f19908116603f011681019082821181831017156148eb576148eb614835565b8160405283815286602085880101111561490457600080fd5b836020870160208301376000602085830101528094505050505092915050565b6000806040838503121561493757600080fd5b61494083614644565b9150602083013567ffffffffffffffff81111561495c57600080fd5b61496885828601614897565b9150509250929050565b803561ffff8116811461300557600080fd5b80356002811061300557600080fd5b6000602082840312156149a557600080fd5b813567ffffffffffffffff808211156149bd57600080fd5b9083019060c082860312156149d157600080fd5b6149d961484b565b8235828111156149e857600080fd5b6149f487828601614897565b825250602083013582811115614a0957600080fd5b614a1587828601614897565b602083015250614a2760408401614644565b6040820152606083013582811115614a3e57600080fd5b614a4a87828601614897565b606083015250614a5c60808401614972565b6080820152614a6d60a08401614984565b60a082015295945050505050565b60038110614a8b57614a8b614773565b50565b61479981614a7b565b60006101408251818552614aad828601826146a9565b9150506020830151614aca60208601826001600160a01b03169052565b5060408301518482036040860152614ae282826146a9565b9150506060830151614aff60608601826001600160a01b03169052565b5060808301518482036080860152614b1782826146a9565b91505060a083015184820360a0860152614b3182826146a9565b91505060c083015160c085015260e0830151614b5060e0860182614a8e565b5061010080840151614b6482870182614a8e565b50506101208084015185830382870152614b7e83826146a9565b9695505050505050565b8315158152606060208201526000614ba3606083018561479d565b8281036040840152614b7e8185614a97565b8035801515811461300557600080fd5b600080600060608486031215614bda57600080fd5b614be384614644565b9250614bf160208501614bb5565b9150604084013567ffffffffffffffff811115614c0d57600080fd5b614c1986828701614897565b9150509250925092565b600080600060608486031215614c3857600080fd5b614c4184614644565b9250602084013567ffffffffffffffff80821115614c5e57600080fd5b614c6a87838801614897565b93506040860135915080821115614c8057600080fd5b50614c1986828701614897565b600060208284031215614c9f57600080fd5b5035919050565b600060408201848352602060408185015281855180845260608601915060608160051b870101935082870160005b82811015614d0257605f19888703018452614cf086835161479d565b95509284019290840190600101614cd4565b509398975050505050505050565b8315158152606060208201526000614ba360608301856146d5565b600080600060608486031215614d4057600080fd5b833567ffffffffffffffff80821115614d5857600080fd5b9085019060e08288031215614d6c57600080fd5b614d74614874565b823582811115614d8357600080fd5b614d8f89828601614897565b825250602083013582811115614da457600080fd5b614db089828601614897565b60208301525060408301356040820152614dcc60608401614644565b6060820152614ddd60808401614644565b608082015260a083013582811115614df457600080fd5b614e0089828601614897565b60a08301525060c083013560c082015280955050602086013593506040860135915080821115614c8057600080fd5b600080600060608486031215614e4457600080fd5b833567ffffffffffffffff80821115614e5c57600080fd5b614e6887838801614897565b94506020860135915080821115614e7e57600080fd5b50614e8b86828701614897565b925050604084013590509250925092565b60008060408385031215614eaf57600080fd5b823567ffffffffffffffff811115614ec657600080fd5b614ed285828601614897565b95602094909401359450505050565b60008060408385031215614ef457600080fd5b614efd83614644565b9150614f0b60208401614bb5565b90509250929050565b600060408201848352602060408185015281855180845260608601915060608160051b870101935082870160005b82811015614d0257605f19888703018452614f5e868351614a97565b95509284019290840190600101614f42565b602081526000825160a06020840152614f8c60c08401826146a9565b90506020840151601f19848303016040850152614fa982826146a9565b91505060018060a01b0360408501511660608401526060840151614fcc81614a7b565b80608085015250608084015161481a60a0850182614789565b6020808252600b908201526a496420697320456d70747960a81b604082015260600190565b6020808252600d908201526c5573657220496420456d70747960981b604082015260600190565b600181811c9082168061504557607f821691505b6020821081141561042c57634e487b7160e01b600052602260045260246000fd5b60208082526010908201526f5573657220456d61696c20456d70747960801b604082015260600190565b6020808252600e908201526d10985b9ac81b9bdd08199bdd5b9960921b604082015260600190565b60208082526012908201527142616e6b206973206e6f742061637469766560701b604082015260600190565b600082516150f681846020870161467d565b9190910192915050565b8054600090600181811c908083168061511a57607f831692505b602080841082141561513c57634e487b7160e01b600052602260045260246000fd5b83885260208801828015615157576001811461516857615193565b60ff19871682528282019750615193565b60008981526020902060005b8781101561518d57815484820152908601908401615174565b83019850505b5050505050505092915050565b6060815260006151b360608301866146a9565b82810360208401526151c58186615100565b90508281036040840152614b7e8185615100565b60208082526015908201527413db9b1e4818591b5a5b881a5cc8185b1b1bddd959605a1b604082015260600190565b634e487b7160e01b600052603260045260246000fd5b634e487b7160e01b600052601160045260246000fd5b60006000198214156152485761524861521e565b5060010190565b60808152600061526260808301876146a9565b6001600160a01b03868116602085015285166040840152905061528483614a7b565b82606083015295945050505050565b6060815260006152a660608301866146a9565b82810360208401526152b88186615100565b90508281036040840152614b7e81856146a9565b6001600160a01b03851681526080602082018190526000906152f0908301866146a9565b828103604084015261530281866146a9565b9050828103606084015261531681856146a9565b979650505050505050565b6001600160a01b0384168152606060208201819052600090615345908301856146a9565b8281036040840152614b7e81856146a9565b6001600160a01b038416815260606020820181905260009061534590830185615100565b6001600160a01b038316815260406020820181905260009061539f90830184615100565b949350505050565b600061ffff808316818114156153bf576153bf61521e565b6001019392505050565b634e487b7160e01b600052601260045260246000fd5b6000826153ee576153ee6153c9565b500690565b600082615402576154026153c9565b500490565b6000828210156154195761541961521e565b500390565b60008160001904831182151516156154385761543861521e565b50029056fea264697066735822122084784150b25c9accd385ba2ba8e28056a79c4b702e5d8dc9189cfa1f78e2302f64736f6c634300080c0033",
  "immutableReferences": {},
  "source": "// SPDX-License-Identifier: GPL-3.0\npragma experimental ABIEncoderV2;\npragma solidity >=0.4.25 <0.9.0;\n\n/** \nAssumptions\n* Finanicial Institutions - Bank\n* Users - Customer\n* Super Admin - Admin\n*/\n\nimport \"./Customers.sol\";\nimport \"./Banks.sol\";\n\n/**\n * @title KYC\n * @author Suresh Konakanchi\n * @dev Library for managing KYC process seemlessly using de-centralised system\n */\ncontract KYC is Customers, Banks {\n    address admin;\n    address[] internal userList;\n\n    mapping(address => Types.User) internal users;\n    mapping(string => Types.KycRequest) internal kycRequests;\n    mapping(address => address[]) internal bankCustomers; // All customers associated to a Bank\n    mapping(address => address[]) internal customerbanks; // All banks associated to a Customer\n\n    /**\n     * @notice Set admin to one who deploy this contract\n     * Who will act as the super-admin to add all the financial institutions (banks)\n     * @param name_ Name of the admin\n     * @param email_ Email of the admin\n     */\n    constructor(string memory name_, string memory email_) {\n        admin = msg.sender;\n        Types.User memory usr_ = Types.User({\n            name: name_,\n            email: email_,\n            id_: admin,\n            role: Types.Role.Admin,\n            status: Types.BankStatus.Active\n        });\n        users[admin] = usr_;\n        userList.push(admin);\n    }\n\n    // Modifiers\n\n    /**\n     * @notice Checks whether the requestor is admin\n     */\n    modifier isAdmin() {\n        require(msg.sender == admin, \"Only admin is allowed\");\n        _;\n    }\n\n    // Support functions\n\n    /**\n     * @notice Checks whether the KYC request already exists\n     * @param reqId_ Unique Id of the KYC request\n     * @return boolean which says request exists or not\n     */\n    function kycRequestExists(string memory reqId_)\n        internal\n        view\n        returns (bool)\n    {\n        require(!Helpers.compareStrings(reqId_, \"\"), \"Request Id empty\");\n        return Helpers.compareStrings(kycRequests[reqId_].id_, reqId_);\n    }\n\n    /**\n     * @notice All kyc requests. Data will be sent in pages to avoid the more gas fee\n     * @param pageNumber page number for which data is needed (1..2..3....n)\n     * @param isForBank List needed for bank or for customer\n     * @return totalPages Total pages available\n     * @return KycRequest[] List of KYC requests in the current page\n     */\n    function getKYCRequests(uint256 pageNumber, bool isForBank)\n        internal\n        view\n        returns (uint256 totalPages, Types.KycRequest[] memory)\n    {\n        require(pageNumber > 0, \"PN should be > zero\");\n        (\n            uint256 pages,\n            uint256 pageLength_,\n            uint256 startIndex_,\n            uint256 endIndex_\n        ) = Helpers.getIndexes(\n                pageNumber,\n                isForBank\n                    ? bankCustomers[msg.sender]\n                    : customerbanks[msg.sender]\n            );\n        Types.KycRequest[] memory list_ = new Types.KycRequest[](pageLength_);\n        for (uint256 i = startIndex_; i < endIndex_; i++)\n            list_[i] = isForBank\n                ? kycRequests[\n                    Helpers.append(msg.sender, bankCustomers[msg.sender][i])\n                ]\n                : kycRequests[\n                    Helpers.append(customerbanks[msg.sender][i], msg.sender)\n                ];\n        return (pages, list_);\n    }\n\n    // Events\n\n    event KycRequestAdded(string reqId, string bankName, string customerName);\n    event KycReRequested(string reqId, string bankName, string customerName);\n    event KycStatusChanged(\n        string reqId,\n        address customerId,\n        address bankId,\n        Types.KycStatus status\n    );\n    event DataHashPermissionChanged(\n        string reqId,\n        address customerId,\n        address bankId,\n        Types.DataHashStatus status\n    );\n\n    // Admin Interface\n\n    /**\n     * @dev All the banks list. Data will be sent in pages to avoid the more gas fee\n     * @param pageNumber page number for which data is needed (1..2..3....n)\n     * @return totalPages Total pages available\n     * @return Bank[] List of banks in the current page\n     */\n    function getAllBanks(uint256 pageNumber)\n        public\n        view\n        isAdmin\n        returns (uint256 totalPages, Types.Bank[] memory)\n    {\n        return getallbanks(pageNumber);\n    }\n\n    /**\n     * @dev To add new bank account\n     * @param bank_ Bank details, which need to be added to the system\n     */\n    function addBank(Types.Bank memory bank_) public isAdmin {\n        addbank(bank_);\n        // Adding to common list\n        users[bank_.id_] = Types.User({\n            name: bank_.name,\n            email: bank_.email,\n            id_: bank_.id_,\n            role: Types.Role.Bank,\n            status: Types.BankStatus.Active\n        });\n        userList.push(bank_.id_);\n    }\n\n    /**\n     * @dev To add new bank account\n     * @param id_ Bank's metamask address\n     * @param email_ Bank's email address that need to be updated\n     * @param name_ Bank's name which need to be updated\n     */\n    function updateBankDetails(\n        address id_,\n        string memory email_,\n        string memory name_\n    ) public isAdmin {\n        updatebank(id_, email_, name_);\n        // Updating in common list\n        users[id_].name = name_;\n        users[id_].email = email_;\n    }\n\n    /**\n     * @dev To add new bank account\n     * @param id_ Bank's metamask address\n     * @param makeActive_ If true, bank will be marked as active, else, it will be marked as deactivateds\n     */\n    function activateDeactivateBank(address id_, bool makeActive_)\n        public\n        isAdmin\n    {\n        // Updating in common list\n        users[id_].status = activatedeactivatebank(id_, makeActive_);\n    }\n\n    // Bank Interface\n\n    /**\n     * @dev List of customers, who are linked to the current bank. Data will be sent in pages to avoid the more gas fee\n     * @param pageNumber page number for which data is needed (1..2..3....n)\n     * @return totalPages Total pages available\n     * @return KycRequest[] List of KYC requests in the current page\n     */\n    function getCustomersOfBank(uint256 pageNumber)\n        public\n        view\n        isValidBank(msg.sender)\n        returns (uint256 totalPages, Types.KycRequest[] memory)\n    {\n        return getKYCRequests(pageNumber, true);\n    }\n\n    /**\n     * @notice Records new KYC request for a customer\n     * @param customer_ Customer details for whom the request is to be raised\n     * @param currentTime_ Current Date & Time in unix epoch timestamp\n     * @param notes_ Any additional notes that need to be added\n     */\n    function addKycRequest(\n        Types.Customer memory customer_,\n        uint256 currentTime_,\n        string memory notes_\n    ) public isValidBank(msg.sender) {\n        string memory reqId_ = Helpers.append(msg.sender, customer_.id_);\n        require(!kycRequestExists(reqId_), \"User had kyc req.\");\n\n        kycRequests[reqId_] = Types.KycRequest({\n            id_: reqId_,\n            userId_: customer_.id_,\n            customerName: customer_.name,\n            bankId_: msg.sender,\n            bankName: getsinglebank(msg.sender).name,\n            dataHash: customer_.dataHash,\n            updatedOn: currentTime_,\n            status: Types.KycStatus.Pending,\n            dataRequest: Types.DataHashStatus.Pending,\n            additionalNotes: notes_\n        });\n        bankCustomers[msg.sender].push(customer_.id_);\n        customerbanks[customer_.id_].push(msg.sender);\n        emit KycRequestAdded(\n            reqId_,\n            kycRequests[reqId_].bankName,\n            customer_.name\n        );\n\n        if (!customerExists(customer_.id_)) {\n            addcustomer(customer_);\n            // Adding to common list\n            users[customer_.id_] = Types.User({\n                name: customer_.name,\n                email: customer_.email,\n                id_: customer_.id_,\n                role: Types.Role.Customer,\n                status: Types.BankStatus.Active\n            });\n            userList.push(customer_.id_);\n        }\n    }\n\n    /**\n     * @notice Updates existing KYC request for a customer (It's a re-request)\n     * @param id_ Customer ID for whom the request has to be re-raised\n     * @param notes_ Any additional notes that need to be added\n     */\n    function reRequestForKycRequest(address id_, string memory notes_)\n        public\n        isValidBank(msg.sender)\n    {\n        string memory reqId_ = Helpers.append(msg.sender, id_);\n        require(kycRequestExists(reqId_), \"KYC req not found\");\n        require(customerExists(id_), \"User not found\");\n\n        // kycRequests[reqId_].status = Types.KycStatus.Pending;\n        kycRequests[reqId_].dataRequest = Types.DataHashStatus.Pending;\n        kycRequests[reqId_].additionalNotes = notes_;\n\n        emit KycReRequested(\n            reqId_,\n            kycRequests[reqId_].bankName,\n            kycRequests[reqId_].customerName\n        );\n    }\n\n    /**\n     * @dev To mark the KYC verification as failure\n     * @param userId_ Id of the user\n     * @param userId_ KYC Verified\n     * @param note_ Any info that need to be shared\n     */\n    function updateKycVerification(\n        address userId_,\n        bool verified_,\n        string memory note_\n    ) public isValidBank(msg.sender) {\n        string memory reqId_ = Helpers.append(msg.sender, userId_);\n        require(kycRequestExists(reqId_), \"User doesn't have KYC req\");\n\n        Types.KycStatus status_ = Types.KycStatus.Pending;\n        if (verified_) {\n            status_ = Types.KycStatus.KYCVerified;\n            updatekyccount(msg.sender);\n            updatekycdoneby(userId_);\n        } else {\n            status_ = Types.KycStatus.KYCFailed;\n        }\n\n        kycRequests[reqId_].status = status_;\n        kycRequests[reqId_].additionalNotes = note_;\n        emit KycStatusChanged(reqId_, userId_, msg.sender, status_);\n    }\n\n    /**\n     * @dev Search for customer details in the list that the bank is directly linked to\n     * @param id_ Customer's metamask Id\n     * @return boolean to say if customer exists or not\n     * @return Customer object to get the complete details of the customer\n     * @return KycRequest object to get the details about the request & it's status\n     * Costly operation if we had more customers linked to this single bank\n     */\n    function searchCustomers(address id_)\n        public\n        view\n        isValidCustomer(id_)\n        isValidBank(msg.sender)\n        returns (\n            bool,\n            Types.Customer memory,\n            Types.KycRequest memory\n        )\n    {\n        bool found_;\n        Types.Customer memory customer_;\n        Types.KycRequest memory request_;\n        (found_, customer_) = searchcustomers(id_, bankCustomers[msg.sender]);\n        if (found_) request_ = kycRequests[Helpers.append(msg.sender, id_)];\n        return (found_, customer_, request_);\n    }\n\n    // Customer Interface\n\n    /**\n     * @notice List of all banks. Data will be sent in pages to avoid the more gas fee\n     * @dev This is customer facing RPC end point\n     * @param pageNumber page number for which data is needed (1..2..3....n)\n     * @return totalPages Total pages available\n     * @return KycRequest[] List of KYC requests in the current page\n     */\n    function getBankRequests(uint256 pageNumber)\n        public\n        view\n        isValidCustomer(msg.sender)\n        returns (uint256 totalPages, Types.KycRequest[] memory)\n    {\n        return getKYCRequests(pageNumber, false);\n    }\n\n    /**\n     * @dev Updates the KYC request (Either Approves or Rejects)\n     * @param bankId_ Id of the bank\n     * @param approve_ Approve the data hash or reject\n     * @param note_ Any info that need to be shared\n     */\n    function actionOnKycRequest(\n        address bankId_,\n        bool approve_,\n        string memory note_\n    ) public isValidCustomer(msg.sender) isValidBank(bankId_) {\n        string memory reqId_ = Helpers.append(bankId_, msg.sender);\n        require(kycRequestExists(reqId_), \"User doesn't have KYC req\");\n\n        Types.DataHashStatus status_ = Types.DataHashStatus.Pending;\n        if (approve_) {\n            status_ = Types.DataHashStatus.Approved;\n        } else {\n            status_ = Types.DataHashStatus.Rejected;\n        }\n        kycRequests[reqId_].dataRequest = status_;\n        kycRequests[reqId_].additionalNotes = note_;\n\n        emit DataHashPermissionChanged(reqId_, msg.sender, bankId_, status_);\n    }\n\n    /**\n     * @dev Updates the user profile\n     * @param name_ Customer name\n     * @param email_ Email that need to be updated\n     * @param mobile_ Mobile number that need to be updated\n     */\n    function updateProfile(\n        string memory name_,\n        string memory email_,\n        uint256 mobile_\n    ) public isValidCustomer(msg.sender) {\n        updateprofile(name_, email_, mobile_);\n        // Updating in common list\n        users[msg.sender].name = name_;\n        users[msg.sender].email = email_;\n    }\n\n    /**\n     * @dev Updates the Datahash of the documents\n     * @param hash_ Data hash value that need to be updated\n     * @param currentTime_ Current Date Time in unix epoch timestamp\n     */\n    function updateDatahash(string memory hash_, uint256 currentTime_)\n        public\n        isValidCustomer(msg.sender)\n    {\n        updatedatahash(hash_, currentTime_);\n\n        // Reset KYC verification status for all banks\n        address[] memory banksList_ = customerbanks[msg.sender];\n        for (uint256 i = 0; i < banksList_.length; i++) {\n            string memory reqId_ = Helpers.append(banksList_[i], msg.sender);\n            if (kycRequestExists(reqId_)) {\n                kycRequests[reqId_].dataHash = hash_;\n                kycRequests[reqId_].updatedOn = currentTime_;\n                kycRequests[reqId_].status = Types.KycStatus.Pending;\n                kycRequests[reqId_].additionalNotes = \"Updated all my docs\";\n            }\n        }\n    }\n\n    /**\n     * @dev Removes the permission to a specific bank, so that they can't access the documents again\n     * @param bankId_ Id of the bank to whom permission has to be revoked\n     * @param notes_ Any additional notes that need to included\n     */\n    function removerDatahashPermission(address bankId_, string memory notes_)\n        public\n        isValidCustomer(msg.sender)\n    {\n        string memory reqId_ = Helpers.append(bankId_, msg.sender);\n        require(kycRequestExists(reqId_), \"Permission not found\");\n        kycRequests[reqId_].dataRequest = Types.DataHashStatus.Rejected;\n        kycRequests[reqId_].additionalNotes = notes_;\n        emit DataHashPermissionChanged(\n            reqId_,\n            msg.sender,\n            bankId_,\n            Types.DataHashStatus.Rejected\n        );\n    }\n\n    /**\n     * @dev Search for bank details in the list that the customer is directly linked to\n     * @param bankId_ Bank's metamask Id\n     * @return boolean to say if bank exists or not\n     * @return Bank object to get the complete details of the bank\n     * @return KycRequest object to get the details about the request & it's status\n     * Costly operation if we had more banks linked to this single customer\n     */\n    function searchBanks(address bankId_)\n        public\n        view\n        isValidCustomer(msg.sender)\n        isValidBank(bankId_)\n        returns (\n            bool,\n            Types.Bank memory,\n            Types.KycRequest memory\n        )\n    {\n        bool found_;\n        Types.Bank memory bank_;\n        Types.KycRequest memory request_;\n        address[] memory banks_ = customerbanks[msg.sender];\n\n        for (uint256 i = 0; i < banks_.length; i++) {\n            if (banks_[i] == bankId_) {\n                found_ = true;\n                bank_ = getsinglebank(bankId_);\n                request_ = kycRequests[Helpers.append(bankId_, msg.sender)];\n                break;\n            }\n        }\n        return (found_, bank_, request_);\n    }\n\n    // Common Interface\n\n    /**\n     * @dev Updates the KYC request (Either Approves or Rejects)\n     * @return User object which contains the role & other basic info\n     */\n    function whoAmI() public view returns (Types.User memory) {\n        require(msg.sender != address(0), \"Sender Id Empty\");\n        require(users[msg.sender].id_ != address(0), \"User Id Empty\");\n        return users[msg.sender];\n    }\n\n    /**\n     * @dev To get details of the customer\n     * @param id_ Customer's metamask address\n     * @return Customer object which will have complete details of the customer\n     */\n    function getCustomerDetails(address id_)\n        public\n        view\n        isValidCustomer(id_)\n        returns (Types.Customer memory)\n    {\n        return getcustomerdetails(id_);\n    }\n\n    /**\n     * @dev To get details of the bank\n     * @param id_ Bank's metamask address\n     * @return Bank object which will have complete details of the bank\n     */\n    function getBankDetails(address id_)\n        public\n        view\n        isValidBank(id_)\n        returns (Types.Bank memory)\n    {\n        return getsinglebank(id_);\n    }\n}\n",
  "sourcePath": "C:\\Users\\hats1\\Documents\\sample-decentralised-kyc-ethereum-main\\blockchain\\contracts\\KYC.sol",
  "compiler": {
    "name": "solc",
    "version": "0.8.12+commit.f00d7308.Emscripten.clang"
  },
  "schemaVersion": "3.4.16",
  "updatedAt": "2025-10-22T14:07:10.305Z",
  "networkType": "ethereum",
  "devdoc": {
    "author": "Suresh Konakanchi",
    "details": "Library for managing KYC process seemlessly using de-centralised system",
    "kind": "dev",
    "methods": {
      "actionOnKycRequest(address,bool,string)": {
        "details": "Updates the KYC request (Either Approves or Rejects)",
        "params": {
          "approve_": "Approve the data hash or reject",
          "bankId_": "Id of the bank",
          "note_": "Any info that need to be shared"
        }
      },
      "activateDeactivateBank(address,bool)": {
        "details": "To add new bank account",
        "params": {
          "id_": "Bank's metamask address",
          "makeActive_": "If true, bank will be marked as active, else, it will be marked as deactivateds"
        }
      },
      "addBank((string,string,address,string,uint16,uint8))": {
        "details": "To add new bank account",
        "params": {
          "bank_": "Bank details, which need to be added to the system"
        }
      },
      "addKycRequest((string,string,uint256,address,address,string,uint256),uint256,string)": {
        "params": {
          "currentTime_": "Current Date & Time in unix epoch timestamp",
          "customer_": "Customer details for whom the request is to be raised",
          "notes_": "Any additional notes that need to be added"
        }
      },
      "constructor": {
        "params": {
          "email_": "Email of the admin",
          "name_": "Name of the admin"
        }
      },
      "getAllBanks(uint256)": {
        "details": "All the banks list. Data will be sent in pages to avoid the more gas fee",
        "params": {
          "pageNumber": "page number for which data is needed (1..2..3....n)"
        },
        "returns": {
          "_1": "Bank[] List of banks in the current page",
          "totalPages": "Total pages available"
        }
      },
      "getBankDetails(address)": {
        "details": "To get details of the bank",
        "params": {
          "id_": "Bank's metamask address"
        },
        "returns": {
          "_0": "Bank object which will have complete details of the bank"
        }
      },
      "getBankRequests(uint256)": {
        "details": "This is customer facing RPC end point",
        "params": {
          "pageNumber": "page number for which data is needed (1..2..3....n)"
        },
        "returns": {
          "_1": "KycRequest[] List of KYC requests in the current page",
          "totalPages": "Total pages available"
        }
      },
      "getCustomerDetails(address)": {
        "details": "To get details of the customer",
        "params": {
          "id_": "Customer's metamask address"
        },
        "returns": {
          "_0": "Customer object which will have complete details of the customer"
        }
      },
      "getCustomersOfBank(uint256)": {
        "details": "List of customers, who are linked to the current bank. Data will be sent in pages to avoid the more gas fee",
        "params": {
          "pageNumber": "page number for which data is needed (1..2..3....n)"
        },
        "returns": {
          "_1": "KycRequest[] List of KYC requests in the current page",
          "totalPages": "Total pages available"
        }
      },
      "reRequestForKycRequest(address,string)": {
        "params": {
          "id_": "Customer ID for whom the request has to be re-raised",
          "notes_": "Any additional notes that need to be added"
        }
      },
      "removerDatahashPermission(address,string)": {
        "details": "Removes the permission to a specific bank, so that they can't access the documents again",
        "params": {
          "bankId_": "Id of the bank to whom permission has to be revoked",
          "notes_": "Any additional notes that need to included"
        }
      },
      "searchBanks(address)": {
        "details": "Search for bank details in the list that the customer is directly linked to",
        "params": {
          "bankId_": "Bank's metamask Id"
        },
        "returns": {
          "_0": "boolean to say if bank exists or not",
          "_1": "Bank object to get the complete details of the bank",
          "_2": "KycRequest object to get the details about the request & it's status Costly operation if we had more banks linked to this single customer"
        }
      },
      "searchCustomers(address)": {
        "details": "Search for customer details in the list that the bank is directly linked to",
        "params": {
          "id_": "Customer's metamask Id"
        },
        "returns": {
          "_0": "boolean to say if customer exists or not",
          "_1": "Customer object to get the complete details of the customer",
          "_2": "KycRequest object to get the details about the request & it's status Costly operation if we had more customers linked to this single bank"
        }
      },
      "updateBankDetails(address,string,string)": {
        "details": "To add new bank account",
        "params": {
          "email_": "Bank's email address that need to be updated",
          "id_": "Bank's metamask address",
          "name_": "Bank's name which need to be updated"
        }
      },
      "updateDatahash(string,uint256)": {
        "details": "Updates the Datahash of the documents",
        "params": {
          "currentTime_": "Current Date Time in unix epoch timestamp",
          "hash_": "Data hash value that need to be updated"
        }
      },
      "updateKycVerification(address,bool,string)": {
        "details": "To mark the KYC verification as failure",
        "params": {
          "note_": "Any info that need to be shared",
          "userId_": "KYC Verified"
        }
      },
      "updateProfile(string,string,uint256)": {
        "details": "Updates the user profile",
        "params": {
          "email_": "Email that need to be updated",
          "mobile_": "Mobile number that need to be updated",
          "name_": "Customer name"
        }
      },
      "whoAmI()": {
        "details": "Updates the KYC request (Either Approves or Rejects)",
        "returns": {
          "_0": "User object which contains the role & other basic info"
        }
      }
    },
    "title": "KYC",
    "version": 1
  },
  "userdoc": {
    "kind": "user",
    "methods": {
      "addKycRequest((string,string,uint256,address,address,string,uint256),uint256,string)": {
        "notice": "Records new KYC request for a customer"
      },
      "constructor": {
        "notice": "Set admin to one who deploy this contract Who will act as the super-admin to add all the financial institutions (banks)"
      },
      "getBankRequests(uint256)": {
        "notice": "List of all banks. Data will be sent in pages to avoid the more gas fee"
      },
      "reRequestForKycRequest(address,string)": {
        "notice": "Updates existing KYC request for a customer (It's a re-request)"
      }
    },
    "version": 1
  }
}