{
  "contractName": "KYC",
  "abi": [
    {
      "anonymous": false,
      "inputs": [
        {
          "indexed": false,
          "internalType": "address",
          "name": "user",
          "type": "address"
        },
        {
          "indexed": false,
          "internalType": "string",
          "name": "name",
          "type": "string"
        }
      ],
      "name": "UserRegistered",
      "type": "event"
    },
    {
      "inputs": [
        {
          "internalType": "address",
          "name": "",
          "type": "address"
        }
      ],
      "name": "users",
      "outputs": [
        {
          "internalType": "string",
          "name": "name",
          "type": "string"
        },
        {
          "internalType": "uint256",
          "name": "age",
          "type": "uint256"
        },
        {
          "internalType": "string",
          "name": "email",
          "type": "string"
        },
        {
          "internalType": "string",
          "name": "aadhar",
          "type": "string"
        },
        {
          "internalType": "bool",
          "name": "isRegistered",
          "type": "bool"
        }
      ],
      "stateMutability": "view",
      "type": "function",
      "constant": true
    },
    {
      "inputs": [
        {
          "internalType": "string",
          "name": "_name",
          "type": "string"
        },
        {
          "internalType": "uint256",
          "name": "_age",
          "type": "uint256"
        },
        {
          "internalType": "string",
          "name": "_email",
          "type": "string"
        },
        {
          "internalType": "string",
          "name": "_aadhar",
          "type": "string"
        }
      ],
      "name": "registerUser",
      "outputs": [],
      "stateMutability": "nonpayable",
      "type": "function"
    },
    {
      "inputs": [
        {
          "internalType": "address",
          "name": "user",
          "type": "address"
        }
      ],
      "name": "getUser",
      "outputs": [
        {
          "internalType": "string",
          "name": "",
          "type": "string"
        },
        {
          "internalType": "uint256",
          "name": "",
          "type": "uint256"
        },
        {
          "internalType": "string",
          "name": "",
          "type": "string"
        },
        {
          "internalType": "string",
          "name": "",
          "type": "string"
        },
        {
          "internalType": "bool",
          "name": "",
          "type": "bool"
        }
      ],
      "stateMutability": "view",
      "type": "function",
      "constant": true
    }
  ],
  "bytecode": "0x608060405234801561001057600080fd5b50610c91806100206000396000f3fe608060405234801561001057600080fd5b50600436106100415760003560e01c80636f77926b14610046578063a87430ba1461007a578063b7bb80f9146100ae575b600080fd5b610060600480360381019061005b91906107d1565b6100ca565b6040516100719594939291906108cb565b60405180910390f35b610094600480360381019061008f91906107d1565b610327565b6040516100a59594939291906108cb565b60405180910390f35b6100c860048036038101906100c39190610a94565b610502565b005b606060006060806000806000808873ffffffffffffffffffffffffffffffffffffffff1673ffffffffffffffffffffffffffffffffffffffff1681526020019081526020016000206040518060a001604052908160008201805461012d90610b7e565b80601f016020809104026020016040519081016040528092919081815260200182805461015990610b7e565b80156101a65780601f1061017b576101008083540402835291602001916101a6565b820191906000526020600020905b81548152906001019060200180831161018957829003601f168201915b50505050508152602001600182015481526020016002820180546101c990610b7e565b80601f01602080910402602001604051908101604052809291908181526020018280546101f590610b7e565b80156102425780601f1061021757610100808354040283529160200191610242565b820191906000526020600020905b81548152906001019060200180831161022557829003601f168201915b5050505050815260200160038201805461025b90610b7e565b80601f016020809104026020016040519081016040528092919081815260200182805461028790610b7e565b80156102d45780601f106102a9576101008083540402835291602001916102d4565b820191906000526020600020905b8154815290600101906020018083116102b757829003601f168201915b505050505081526020016004820160009054906101000a900460ff161515151581525050905080600001518160200151826040015183606001518460800151955095509550955095505091939590929450565b600060205280600052604060002060009150905080600001805461034a90610b7e565b80601f016020809104026020016040519081016040528092919081815260200182805461037690610b7e565b80156103c35780601f10610398576101008083540402835291602001916103c3565b820191906000526020600020905b8154815290600101906020018083116103a657829003601f168201915b5050505050908060010154908060020180546103de90610b7e565b80601f016020809104026020016040519081016040528092919081815260200182805461040a90610b7e565b80156104575780601f1061042c57610100808354040283529160200191610457565b820191906000526020600020905b81548152906001019060200180831161043a57829003601f168201915b50505050509080600301805461046c90610b7e565b80601f016020809104026020016040519081016040528092919081815260200182805461049890610b7e565b80156104e55780601f106104ba576101008083540402835291602001916104e5565b820191906000526020600020905b8154815290600101906020018083116104c857829003601f168201915b5050505050908060040160009054906101000a900460ff16905085565b6000803373ffffffffffffffffffffffffffffffffffffffff1673ffffffffffffffffffffffffffffffffffffffff16815260200190815260200160002060040160009054906101000a900460ff1615610591576040517f08c379a000000000000000000000000000000000000000000000000000000000815260040161058890610bfc565b60405180910390fd5b6040518060a00160405280858152602001848152602001838152602001828152602001600115158152506000803373ffffffffffffffffffffffffffffffffffffffff1673ffffffffffffffffffffffffffffffffffffffff16815260200190815260200160002060008201518160000190805190602001906106159291906106bc565b5060208201518160010155604082015181600201908051906020019061063c9291906106bc565b5060608201518160030190805190602001906106599291906106bc565b5060808201518160040160006101000a81548160ff0219169083151502179055509050507f48cac28ad4dc618e15f4c2dd5e97751182f166de97b25618318b2112aa951a2f33856040516106ae929190610c2b565b60405180910390a150505050565b8280546106c890610b7e565b90600052602060002090601f0160209004810192826106ea5760008555610731565b82601f1061070357805160ff1916838001178555610731565b82800160010185558215610731579182015b82811115610730578251825591602001919060010190610715565b5b50905061073e9190610742565b5090565b5b8082111561075b576000816000905550600101610743565b5090565b6000604051905090565b600080fd5b600080fd5b600073ffffffffffffffffffffffffffffffffffffffff82169050919050565b600061079e82610773565b9050919050565b6107ae81610793565b81146107b957600080fd5b50565b6000813590506107cb816107a5565b92915050565b6000602082840312156107e7576107e6610769565b5b60006107f5848285016107bc565b91505092915050565b600081519050919050565b600082825260208201905092915050565b60005b8381101561083857808201518184015260208101905061081d565b83811115610847576000848401525b50505050565b6000601f19601f8301169050919050565b6000610869826107fe565b6108738185610809565b935061088381856020860161081a565b61088c8161084d565b840191505092915050565b6000819050919050565b6108aa81610897565b82525050565b60008115159050919050565b6108c5816108b0565b82525050565b600060a08201905081810360008301526108e5818861085e565b90506108f460208301876108a1565b8181036040830152610906818661085e565b9050818103606083015261091a818561085e565b905061092960808301846108bc565b9695505050505050565b600080fd5b600080fd5b7f4e487b7100000000000000000000000000000000000000000000000000000000600052604160045260246000fd5b6109758261084d565b810181811067ffffffffffffffff821117156109945761099361093d565b5b80604052505050565b60006109a761075f565b90506109b3828261096c565b919050565b600067ffffffffffffffff8211156109d3576109d261093d565b5b6109dc8261084d565b9050602081019050919050565b82818337600083830152505050565b6000610a0b610a06846109b8565b61099d565b905082815260208101848484011115610a2757610a26610938565b5b610a328482856109e9565b509392505050565b600082601f830112610a4f57610a4e610933565b5b8135610a5f8482602086016109f8565b91505092915050565b610a7181610897565b8114610a7c57600080fd5b50565b600081359050610a8e81610a68565b92915050565b60008060008060808587031215610aae57610aad610769565b5b600085013567ffffffffffffffff811115610acc57610acb61076e565b5b610ad887828801610a3a565b9450506020610ae987828801610a7f565b935050604085013567ffffffffffffffff811115610b0a57610b0961076e565b5b610b1687828801610a3a565b925050606085013567ffffffffffffffff811115610b3757610b3661076e565b5b610b4387828801610a3a565b91505092959194509250565b7f4e487b7100000000000000000000000000000000000000000000000000000000600052602260045260246000fd5b60006002820490506001821680610b9657607f821691505b60208210811415610baa57610ba9610b4f565b5b50919050565b7f416c726561647920726567697374657265640000000000000000000000000000600082015250565b6000610be6601283610809565b9150610bf182610bb0565b602082019050919050565b60006020820190508181036000830152610c1581610bd9565b9050919050565b610c2581610793565b82525050565b6000604082019050610c406000830185610c1c565b8181036020830152610c52818461085e565b9050939250505056fea2646970667358221220dbb853b99672c52f7452f3ccc2403a4efc66645af66a8c0ed6a3fdd1e737010e64736f6c634300080c0033",
  "immutableReferences": {},
  "source": "// SPDX-License-Identifier: MIT\npragma solidity ^0.8.0;\n\ncontract KYC {\n\n    struct User {\n        string name;\n        uint age;\n        string email;\n        string aadhar;\n        bool isRegistered;\n    }\n\n    mapping(address => User) public users;\n\n    event UserRegistered(address user, string name);\n\n    function registerUser(\n        string memory _name,\n        uint _age,\n        string memory _email,\n        string memory _aadhar\n    ) public {\n        require(!users[msg.sender].isRegistered, \"Already registered\");\n\n        users[msg.sender] = User(_name, _age, _email, _aadhar, true);\n        emit UserRegistered(msg.sender, _name);\n    }\n\n    function getUser(address user)\n        public\n        view\n        returns (string memory, uint, string memory, string memory, bool)\n    {\n        User memory u = users[user];\n        return (u.name, u.age, u.email, u.aadhar, u.isRegistered);\n    }\n}\n",
  "sourcePath": "C:\\Users\\hats1\\Documents\\sample-decentralised-kyc-ethereum-main\\blockchain\\contracts\\KYC.sol",
  "compiler": {
    "name": "solc",
    "version": "0.8.12+commit.f00d7308.Emscripten.clang"
  },
  "schemaVersion": "3.4.16",
  "updatedAt": "2025-11-08T07:16:25.875Z",
  "networkType": "ethereum",
  "devdoc": {
    "kind": "dev",
    "methods": {},
    "version": 1
  },
  "userdoc": {
    "kind": "user",
    "methods": {},
    "version": 1
  }
}